:020000040000FA
:100000000C945D000C9485000C9485000C94850084
:100010000C9485000C9485000C9485000C9485004C
:100020000C9485000C9485000C9485000C9485003C
:100030000C9485000C9485000C9485000C9485002C
:100040000C9486060C9485000C9454060C942E0691
:100050000C9485000C9485000C9485000C9485000C
:100060000C94D0060C9485000000000024002700AA
:100070002A0000000000250028002B0004040404CE
:100080000404040402020202020203030303030342
:10009000010204081020408001020408102001021F
:1000A00004081020000000080002010000030407FB
:1000B0000000000000000000EF0711241FBECFEF7A
:1000C000D8E0DEBFCDBF11E0A0E0B1E0E4E1FBE1AC
:1000D00002C005900D92A636B107D9F722E0A6E638
:1000E000B1E001C01D92A23EB207E1F710E0CDE5FC
:1000F000D0E004C02197FE010E94820DCC35D107CB
:10010000C9F70E9437080C94880D0C940000809168
:10011000000120E4829FC001112480937C00809123
:100120007A00806480937A0080917A0086FDFCCF0B
:100130008091780090917900089508950895AF9284
:10014000BF92CF92DF92EF92FF920F931F93CF93C4
:10015000DF936C017B018B01040F151FEB015E0126
:10016000AE18BF08C017D10759F06991D601ED91BB
:10017000FC910190F081E02DC6010995892B79F75A
:10018000C501DF91CF911F910F91FF90EF90DF900C
:10019000CF90BF90AF900895FC01538D448D252FD3
:1001A00030E0842F90E0821B930B541710F0CF9611
:1001B000089501970895FC01918D828D981761F043
:1001C000A28DAE0FBF2FB11D5D968C91928D9F5F5A
:1001D0009F73928F90E008958FEF9FEF0895FC0139
:1001E000918D828D981731F0828DE80FF11D858DEC
:1001F00090E008958FEF9FEF0895FC01918D228D7F
:10020000892F90E0805C9F4F821B91098F73992703
:1002100008958DE292E00E94FD0021E0892B09F40F
:1002200020E0822F089580E090E0892B29F00E9441
:10023000090181110C9400000895FC01A48DA80F00
:10024000B92FB11DA35ABF4F2C91848D90E0019618
:100250008F739927848FA689B7892C93A089B18938
:100260008C91837080648C93938D848D981306C0D9
:100270000288F389E02D80818F7D80830895EF923D
:10028000FF920F931F93CF93DF93EC0181E0888F50
:100290009B8D8C8D98131AC0E889F989808185FF20
:1002A00015C09FB7F894EE89FF896083E889F989C2
:1002B00080818370806480839FBF81E090E0DF91C4
:1002C000CF911F910F91FF90EF900895F62E0B8D17
:1002D00010E00F5F1F4F0F731127E02E8C8D8E11D2
:1002E0000CC00FB607FCFACFE889F989808185FF39
:1002F000F5CFCE010E941D01F1CFEB8DEC0FFD2F4C
:10030000F11DE35AFF4FF0829FB7F8940B8FEA89F3
:10031000FB8980818062CFCFCF93DF93EC01888D02
:100320008823B9F0AA89BB89E889F9898C9185FD70
:1003300003C0808186FD0DC00FB607FCF7CF8C91FE
:1003400085FFF2CF808185FFEDCFCE010E941D0198
:10035000E9CFDF91CF91089590E0FC01EC55FF4F7C
:100360002491FC01E057FF4F3491FC01E458FF4F0A
:10037000E491EE23C9F0222339F0233001F1A8F4EF
:10038000213019F1223029F1F0E0EE0FFF1FEE5875
:10039000FF4FA591B4918FB7F894EC91611126C0ED
:1003A00030953E233C938FBF08952730A9F0283025
:1003B000C9F0243049F7809180008F7D03C080917F
:1003C00080008F7780938000DFCF84B58F7784BDE6
:1003D000DBCF84B58F7DFBCF8091B0008F7780938A
:1003E000B000D2CF8091B0008F7DF9CF3E2BDACF15
:1003F000CF93DF9390E0FC01E057FF4F24918458A6
:100400009F4FFC0184918823D1F090E0880F991FC1
:10041000FC01E859FF4FA591B491FC01EE58FF4F44
:10042000C591D49161110EC09FB7F8948C91E22FC1
:10043000E0958E238C932881E223E8839FBFDF9190
:10044000CF9108958FB7F894EC91E22BEC938FBF86
:10045000F6CF3FB7F89480911D0290911E02A091B3
:100460001F02B091200226B5A89B05C02F3F19F0AE
:100470000196A11DB11D3FBFBA2FA92F982F882724
:10048000BC01CD01620F711D811D911D42E0660FFF
:10049000771F881F991F4A95D1F708958F929F92D1
:1004A000AF92BF92CF92DF92EF92FF924B015C012D
:1004B0000E9429026B017C010E9429026C197D09AE
:1004C0008E099F09683E734081059105A8F321E0DC
:1004D000821A9108A108B10888EEC80E83E0D81EE0
:1004E000E11CF11C81149104A104B10429F7FF90CF
:1004F000EF90DF90CF90BF90AF909F908F90089536
:1005000008952091A701260F3327331F213231058B
:10051000ECF42091F001FC0190E080E0243069F0DF
:1005200082E00895A091A7012191AC0149575E4F47
:10053000A40FB52FB11D2C930196861798F38091C7
:10054000A701680F6093A70180E0089581E00895F6
:100550001092F00181E08093EF011092CA0161E0F6
:1005600082E10E94AC0161E083E10E94AC01E9EB11
:10057000F0E080818E7F808380818D7F808388E41E
:100580008093B80085E48093BC000895CF93DF93F7
:1005900091E0909386018823B9F0C091B800D09182
:1005A000BA008091BC008A7B8093BC0060E082E14D
:1005B0000E94AC0160E083E10E94AC010E94A802AD
:1005C000D093BA00C093B800DF91CF9108950895F9
:1005D000E091280280912702E81730F4F0E0EA5910
:1005E000FE4F808190E008958FEF9FEF08959091E6
:1005F0002802809127022FEF3FEF981748F4E92F48
:10060000F0E0EA59FE4F208130E09F5F909328028E
:10061000C90108958091270290912802891B990BA6
:100620000895CF92DF92EF92FF920F931F93CF9393
:10063000DF937C01CB018A012091F601222389F00E
:10064000EB016B01C40ED51ECC15DD0569F0699177
:10065000D701ED91FC910190F081E02DC701099542
:10066000F3CF642F0E948102C801DF91CF911F91C7
:100670000F91FF90EF90DF90CF900895CF93DF938D
:100680001F92CDB7DEB769832091F6012223F9F0DE
:1006900020912502203258F021E030E0FC01338324
:1006A000228390E080E00F90DF91CF9108958091B8
:1006B0002602E82FF0E0E950FE4F998190838F5F8A
:1006C000809326028093250281E090E0ECCF61E0E8
:1006D000CE0101960E948102F7CFCF92DF92EF9276
:1006E000FF920F931F93CF93DF93FC01C48121E00E
:1006F0002093F601C0931702109226021092250251
:100700008385682B8AEC92E00E943E03D0912502FB
:10071000D13208F092C00E9429026B017C018091C5
:10072000F001811165C082E08093F00181E0809347
:10073000EF018FEF8093EE011092ED01D093EC0169
:10074000A7EFB1E0ECECF1E080E0D81385C01092A7
:10075000CB018091CB01CC0FC82BC093CB018091F2
:10076000CA01813009F07CC01092CA010E9429029E
:100770006B017C018091CB018093BB008091F201E1
:100780009091F301A091F401B091F501892B8A2B8E
:100790008B2B99F00E9429020091F2011091F30134
:1007A0002091F4013091F5016C197D098E099F09A2
:1007B0000617170728073907E0F18091BC0083FD71
:1007C000D9CF85EC8093BC000E9429026B017C018B
:1007D0008091F001823009F445C08091EE018F3F95
:1007E00061F18091EE01803241F18091EE0125C0EE
:1007F0008091F2019091F301A091F401B091F50183
:10080000892B8A2B8B2B09F48ACF0E942902009115
:10081000F2011091F3012091F4013091F5016C196E
:100820007D098E099F09061717072807390708F061
:1008300076CF8091F1010E94C6021092260210929A
:1008400025021092F601DF91CF911F910F91FF9039
:10085000EF90DF90CF9008959D9191938F5F75CF2A
:1008600085EEB0CF8091F2019091F301A091F40157
:10087000B091F501892B8A2B8B2B09F4A9CF0E940B
:1008800029020091F2011091F3012091F4013091BD
:10089000F5016C197D098E099F09061717072807AE
:1008A000390708F095CFC5CF90E080E00895FC01AE
:1008B00001900020E9F73197AF01481B590BBC01AB
:1008C00086ED92E00C949F008F929F92AF92BF9220
:1008D0000F931F93CF93DF93CDB7DEB7A1970FB6DA
:1008E000F894DEBF0FBECDBF19A2423008F44AE033
:1008F0008E010F5D1F4F842E912CB12CA12CA501D0
:1009000094010E94600DE62FB901CA01EA30F4F4A7
:10091000E05DD801EE938D01232B242B252B79F755
:1009200090E080E0109719F0CD010E945704A19645
:100930000FB6F894DEBF0FBECDBFDF91CF911F91F0
:100940000F91BF90AF909F908F900895E95CE1CF99
:100950000C9457040F931F93CF938C01C62F0E94C2
:100960006D036C2F6460C8010E946D036C2F6B7F58
:10097000C8010E946D0383EC90E00197F1F7CF91DD
:100980001F910F9108950F931F93CF93DF938C01C5
:10099000D62FC42F607F642B0E94AA0480E1D89FC9
:1009A000B00111246C2BC801DF91CF911F910F91E1
:1009B0000C94AA04CF93DF93CDB7DEB728970FB678
:1009C000F894DEBF0FBECDBF98E0E1E0F1E0DE01BC
:1009D000119601900D929A95E1F79091DE0296178B
:1009E00008F46FEF262F30E0220F331F41E050E074
:1009F0004C0F5D1F240F351FF9016081680F60687F
:100A000040E086ED92E028960FB6F894DEBF0FBE68
:100A1000CDBFDF91CF910C94C30440E061E086ED3F
:100A200092E00E94C3048BE39FE10197F1F70895E0
:100A300041E00E94C30481E090E008954F925F92EC
:100A40006F927F928F929F92AF92BF92CF92DF92DE
:100A5000EF92FF92CF93DF936B017C01AC019B017E
:100A60000E945B0D882391F089E391E0DF91CF91A3
:100A7000FF90EF90DF90CF90BF90AF909F908F90BE
:100A80007F906F905F904F900C94570446015701F0
:100A9000E894B7F82FEF3FEF4FE75FE7C501B401E8
:100AA0000E945B0D81110DC02FEF3FEF4FE75FE715
:100AB000C501B4010E94910B18161CF48DE391E05E
:100AC000D5CF2FEF3FEF4FE75FE4C701B6010E949C
:100AD000E90C18161CF481E491E0C8CF2FEF3FEF2A
:100AE0004FE75FECC701B6010E94910B87FDF3CF82
:100AF00020E030E0A901C701B6010E94910BD0E0CF
:100B0000C0E087FF0CC041E06DE286ED92E00E94FC
:100B1000C304F7FAF094F7F8F094C1E0D0E02AE0CB
:100B200037ED43EA5BE3C701B6010E94250B4B0199
:100B30005C010E94080C6B017C010E94370C9B0138
:100B4000AC01C501B4010E94240B4B015C014AE0D9
:100B5000C701B6010E9464047C01EC0EFD1E41E059
:100B60006EE286ED92E00E94C3048FEFE81AF80A65
:100B700020E030E040E251E4C501B4010E94EE0CF7
:100B80002B013C010E94080C4B01B12CA12C4AE026
:100B9000C501B4010E946404E80EF91EC501B40148
:100BA0000E94370C9B01AC01C301B2010E94240BCF
:100BB00020E030E040E251E40E94EE0C0E94080C7C
:100BC00090E080E04AE00E9464048E0D9F1DDF915A
:100BD000CF91FF90EF90DF90CF90BF90AF909F901C
:100BE0008F907F906F905F904F90089585ED8093E8
:100BF000BC008091F2019091F301A091F401B091B9
:100C0000F5010796A11DB11D23E0B695A79597950F
:100C100087952A95D1F72091BC0024FD03C010923E
:100C2000F00108954091F2015091F3016091F401B7
:100C30007091F501452B462B472B69F30097A105D1
:100C4000B10541F02AE22A95F1F700C00197A10908
:100C5000B109E1CF8091F1010C94C6021F920F926D
:100C60000FB60F9211242F933F934F935F936F937F
:100C70007F938F939F93AF93BF93EF93FF938DE2F7
:100C800092E00E941D01FF91EF91BF91AF919F9162
:100C90008F917F916F915F914F913F912F910F9025
:100CA0000FBE0F901F9018951F920F920FB60F92C4
:100CB00011242F938F939F93EF93FF93E0913D0225
:100CC000F0913E028081E0914302F091440282FD66
:100CD0001BC09081809146028F5F8F7320914702E5
:100CE000821741F0E0914602F0E0E35DFD4F958F01
:100CF00080934602FF91EF919F918F912F910F90DA
:100D00000FBE0F901F9018958081F4CF1F920F9205
:100D10000FB60F9211242F933F938F939F93AF930E
:100D2000BF938091190290911A02A0911B02B09179
:100D30001C023091180223E0230F2D3758F501963D
:100D4000A11DB11D209318028093190290931A02DD
:100D5000A0931B02B0931C0280911D0290911E0271
:100D6000A0911F02B09120020196A11DB11D809398
:100D70001D0290931E02A0931F02B0932002BF9108
:100D8000AF919F918F913F912F910F900FBE0F9038
:100D90001F90189526E8230F0296A11DB11DD2CFF2
:100DA0001F920F920FB60F9211242F933F934F93E0
:100DB0005F936F937F938F939F93AF93BF93EF93C3
:100DC000FF938091B900887F803609F44AC0F0F51E
:100DD000883209F4A7C018F5803109F49BC0B8F433
:100DE000882309F4F9C0883009F494C0FF91EF9189
:100DF000BF91AF919F918F917F916F915F914F9133
:100E00003F912F910F900FBE0F901F901895883132
:100E100009F488C0803251F78093EE0114C0803409
:100E200009F49DC040F48033B9F38833F9F6809318
:100E3000EE0185ECB0C0803509F485C0883509F431
:100E400096C0883499F60E94F605D0CF883909F407
:100E50008CC038F5883729F050F4883611F0803787
:100E600029F683E08093F0011092C90157C08838B9
:100E700009F47BC0803919F0803809F0B7CF809130
:100E8000C901803208F071C0E091C90181E08E0F84
:100E90008093C9018091BB00F0E0E755FE4F80834D
:100EA0003DC0803B39F0E0F4803A09F479C0883ADB
:100EB00009F09CCF84E08093F0011092A801109279
:100EC000A701E0912302F091240209958091A701E6
:100ED00081110FC081E08093A7011092870109C0A2
:100EE000803C09F4A6CF883C09F4A3CF883B09F0E5
:100EF0007DCFE091A80181E08E0F8093A801F0E002
:100F0000E957FE4F80818093BB009091A8018091AA
:100F1000A70129C08091CB018093BB0085EC809311
:100F2000BC0064CF9091ED018091EC01981758F5C9
:100F3000E091ED0181E08E0F8093ED01F0E0E4534C
:100F4000FE4F8081E9CFE091ED0181E08E0F80932B
:100F5000ED018091BB00F0E0E453FE4F808390915F
:100F6000ED018091EC019817C8F285E8D8CFE091A7
:100F7000ED0181E08E0F8093ED018091BB00F0E0E8
:100F8000E453FE4F80838091EF0181115CCF81E0BB
:100F90008093CA0184EA8093BC001092F00126CFAE
:100FA00085EC8093BC001092F0018091C9018032E1
:100FB00030F4E091C901F0E0E755FE4F10826091F6
:100FC000C90170E0E0912102F091220289EA91E0EA
:100FD00009951092C9010ACF1092EE0134CFEDE2CB
:100FE000F2E01382128288EE93E0A0E0B0E0848306
:100FF0009583A683B7832DE031E03183208325ECF0
:1010000030E03587248724EC30E03787268720ECD2
:1010100030E0318B208B21EC30E0338B228B22ECC3
:1010200030E0358B248B26EC30E0378B268B118E0D
:10103000128E138E148EEAECF2E0138212828483F5
:101040009583A683B7838FE191E091838083E6ED5A
:10105000F2E01382128281E391E09183808380E247
:10106000848380E1818782E0828713860895789463
:1010700084B5826084BD84B5816084BD85B582609D
:1010800085BD85B5816085BD80916E00816080934E
:101090006E001092810080918100826080938100B7
:1010A00080918100816080938100809180008160C7
:1010B000809380008091B10084608093B100809122
:1010C000B00081608093B00080917A00846080934A
:1010D0007A0080917A00826080937A0080917A0011
:1010E000816080937A0080917A00806880937A0092
:1010F0001092C10010920001109228021092270253
:1011000010922602109225020E94A8028DE990E01A
:1011100090932402809323028EE990E09093220220
:10112000809321021092DB028091E002823018F05D
:1011300098E09093DB028093DE0262E370E080E04F
:1011400090E00E944E026091E10286ED92E00E94E2
:101150006D0368EE73E080E090E00E944E0260E371
:1011600086ED92E00E94AA04CBE4D6E4CE0101977A
:10117000F1F760E386ED92E00E94AA042197F1F76F
:1011800060E386ED92E00E94AA0483E592E0019775
:10119000F1F760E286ED92E00E94AA046091DB0222
:1011A000606240E086ED92E00E94C30484E0809398
:1011B000DC0240E06CE086ED92E00E94C3040E94F5
:1011C0000D05C2E0C093DD0240E066E086ED92E0EE
:1011D0000E94C30440E062E086ED92E00E94C304F6
:1011E0008BE39FE10197F1F788E08093E10260E0F3
:1011F00086ED92E00E946D03E0913D02F0913E0287
:10120000C083E0913902F0913A021082E0913B02F2
:10121000F0913C028FEC808310924502E0914102F4
:10122000F091420286E08083E0913F02F09140021B
:10123000808180618083E0913F02F0914002808153
:1012400088608083E0913F02F09140028081806855
:101250008083E0913F02F091400280818F7D808306
:1012600060E086E00E94F80160E085E00E94F801FD
:1012700060E084E00E94F80160E083E00E94F801F1
:1012800060E08DE00E94F80160E08CE00E94F801CF
:1012900060E08BE00E94F80160E08AE00E94F801C3
:1012A00060E08EE00E94F80160E08FE00E94F801AB
:1012B00060E080E10E94F80160E081E10E94F801B5
:1012C00060E082E10E94F80160E084E00E94DA04BC
:1012D00085E491E00E94A80461E085E00E94DA04C0
:1012E0008EE491E00E94A80468EE73E080E090E054
:1012F0000E944E02C5E000E010E061E08DE00E9437
:10130000F80160E08CE00E94F80160E08BE00E9450
:10131000F80160E08AE00E94F80161E08DE00E943F
:10132000AC010E948700C89FB001C99F700D1124B5
:10133000072E000C880B990B0E94390C20E030E03E
:1013400040E85AE30E94EE0C6B017C0120E030E0A3
:1013500040E950E40E94E90C18160CF0FAC060E075
:101360008DE00E94F80161E08CE00E94F80160E0ED
:101370008BE00E94F80160E08AE00E94F80161E0E1
:101380008CE00E94AC010E948700C89FB001C99FF9
:10139000700D1124072E000C880B990B0E94390C3C
:1013A00020E030E040E85AE30E94EE0C6B017C0143
:1013B00020E030E040E950E40E94E90C18160CF0FF
:1013C000B3C060E08DE00E94F80160E08CE00E9414
:1013D000F80161E08BE00E94F80160E08AE00E9481
:1013E000F80161E08BE00E94AC010E948700C89F79
:1013F000B001C99F700D1124072E000C880B990BAA
:101400000E94390C20E030E040E85AE30E94EE0CE4
:101410006B017C0120E030E040E950E40E94E90CDF
:1014200018160CF06CC060E08DE00E94F80160E0DE
:101430008CE00E94F80160E08BE00E94F80161E01E
:101440008AE00E94F80161E08AE00E94AC010E94FB
:101450008700C89FB001C99F700D1124072E000C92
:10146000880B990B0E94390C20E030E040E85AE3E9
:101470000E94EE0C9B01AC0160E070E080EA90E419
:101480000E94960B20E030E040E85FE30E94240BCE
:101490009B01AC0160E070E080EF92E40E94960B4B
:1014A0006093290270932A0280932B0290932C025E
:1014B0000E940D0560E080E00E94DA0484E591E07E
:1014C0000E94A80461E080E00E94DA046091290291
:1014D00070912A0280912B0290912C020E941E058D
:1014E00061E085E00E94DA048FE591E00E94A804A3
:1014F00068EE73E080E090E00E944E0299C0A70180
:10150000960160E070E080EA90E40E94960B20E093
:1015100030E040E85FE30E94240B9B01AC0160E0F7
:1015200070E088ED91E4BACFA701960160E070E029
:1015300080EA90E40E94960B20E030E040E85FE310
:101540000E94240B9B01AC0160E070E080E291E41A
:10155000A5CFA701960160E070E080EA90E40E94C8
:10156000960B20E030E040E85FE30E94240B9B01F3
:10157000AC016AE979E989E99FE30E94960B6B0166
:101580007C01C0922902D0922A02E0922B02F092B2
:101590002C0220E030E040E85FE30E94910B87FFDF
:1015A00036C00E940D0520E030E04AE754E4C70150
:1015B000B6010E94EE0C6093290270932A02809378
:1015C0002B0290932C0260E080E00E94DA0484E514
:1015D00091E00E94A80461E080E00E94DA0460913A
:1015E000290270912A0280912B0290912C020E9474
:1015F0001E0561E085E00E94DA0480E691E00E9429
:10160000A80468EE73E080E090E00E944E0220E0C3
:1016100030E040E85FE36091290270912A028091F6
:101620002B0290912C020E94E90C18160CF440CF6A
:101630000115110509F461CE0E940901882309F4FE
:101640005CCE0E94000059CE5058BB27AA270E94AA
:101650003C0B0C94AF0C0E94A10C38F00E94A80C1B
:1016600020F039F49F3F19F426F40C949E0C0EF4EC
:10167000E095E7FB0C94980CE92F0E94C00C58F3FE
:10168000BA17620773078407950720F079F4A6F567
:101690000C94E20C0EF4E0950B2EBA2FA02D0B014A
:1016A000B90190010C01CA01A0011124FF27591BA7
:1016B00099F0593F50F4503E68F11A16F040A22FAD
:1016C000232F342F4427585FF3CF4695379527951E
:1016D000A795F0405395C9F77EF41F16BA0B620B1D
:1016E000730B840BBAF09150A1F0FF0FBB1F661F64
:1016F000771F881FC2F70EC0BA0F621F731F841FA7
:1017000048F4879577956795B795F7959E3F08F0CC
:10171000B0CF9395880F08F09927EE0F979587958E
:1017200008950E94740C08F481E008950E94AA0BA9
:101730000C94AF0C0E94A80C58F00E94A10C40F031
:1017400029F45F3F29F00C94980C51110C94E30C90
:101750000C949E0C0E94C00C68F39923B1F355239E
:1017600091F3951B550BBB27AA27621773078407B4
:1017700038F09F5F5F4F220F331F441FAA1FA9F34A
:1017800035D00E2E3AF0E0E832D091505040E69538
:10179000001CCAF72BD0FE2F29D0660F771F881F99
:1017A000BB1F261737074807AB07B0E809F0BB0B8C
:1017B000802DBF01FF2793585F4F3AF09E3F5105A0
:1017C00078F00C94980C0C94E30C5F3FE4F3983E93
:1017D000D4F3869577956795B795F7959F5FC9F789
:1017E000880F911D9695879597F90895E1E0660F0A
:1017F000771F881FBB1F621773078407BA0720F083
:10180000621B730B840BBA0BEE1F88F7E0950895EB
:101810000E94C80C88F09F5798F0B92F9927B751AC
:10182000B0F0E1F0660F771F881F991F1AF0BA9584
:10183000C9F714C0B13091F00E94E20CB1E00895F4
:101840000C94E20C672F782F8827B85F39F0B93FE6
:10185000CCF3869577956795B395D9F73EF4909537
:101860008095709561957F4F8F4F9F4F0895E894B5
:1018700009C097FB3EF490958095709561957F4FD8
:101880008F4F9F4F9923A9F0F92F96E9BB27939586
:10189000F695879577956795B795F111F8CFFAF496
:1018A000BB0F11F460FF1BC06F5F7F4F8F4F9F4FC7
:1018B00016C0882311F096E911C0772321F09EE825
:1018C000872F762F05C0662371F096E8862F70E08B
:1018D00060E02AF09A95660F771F881FDAF7880F65
:1018E0009695879597F90895990F0008550FAA0BBB
:1018F000E0E8FEEF16161706E807F907C0F0121623
:101900001306E407F50798F0621B730B840B950B25
:1019100039F40A2661F0232B242B252B21F408957A
:101920000A2609F4A140A6958FEF811D811D089517
:1019300097F99F6780E870E060E008959FEF80EC82
:10194000089500240A941616170618060906089525
:1019500000240A9412161306140605060895092E8B
:101960000394000C11F4882352F0BB0F40F4BF2BFA
:1019700011F460FF04C06F5F7F4F8F4F9F4F08953A
:1019800057FD9058440F551F59F05F3F71F0479530
:10199000880F97FB991F61F09F3F79F08795089515
:1019A000121613061406551FF2CF4695F1DF08C034
:1019B000161617061806991FF1CF86957105610551
:1019C00008940895E894BB2766277727CB0197F9F9
:1019D00008950E94740C08F48FEF08950E94010D81
:1019E0000C94AF0C0E94A10C38F00E94A80C20F0BF
:1019F000952311F00C94980C0C949E0C11240C94CB
:101A0000E30C0E94C00C70F3959FC1F3950F50E05A
:101A1000551F629FF001729FBB27F00DB11D639FA0
:101A2000AA27F00DB11DAA1F649F6627B00DA11D46
:101A3000661F829F2227B00DA11D621F739FB00DEC
:101A4000A11D621F839FA00D611D221F749F33275C
:101A5000A00D611D231F849F600D211D822F762FF5
:101A60006A2F11249F5750409AF0F1F088234AF0D2
:101A7000EE0FFF1FBB1F661F771F881F915050403E
:101A8000A9F79E3F510580F00C94980C0C94E30C40
:101A90005F3FE4F3983ED4F3869577956795B795C5
:101AA000F795E7959F5FC1F7FE2B880F911D9695DF
:101AB000879597F908950E94740C880B990B0895E7
:101AC000A1E21A2EAA1BBB1BFD010DC0AA1FBB1F42
:101AD000EE1FFF1FA217B307E407F50720F0A21BB4
:101AE000B30BE40BF50B661F771F881F991F1A9421
:101AF00069F760957095809590959B01AC01BD014B
:101B0000CF010895EE0FFF1F0590F491E02D099489
:101B1000F894FFCF010000400014005400000000C2
:101B2000003F019F00CC008C01FD00DB00EF0000B6
:101B30000000003E0311035404E7020A03F702E821
:101B4000020000000018059F00540480026E616EC0
:101B500000696E66006F7666005245534953544FD4
:101B600052004D4554455200526573697374616E5D
:0A1B70006365004B204F686D7300A1
:107E0000112484B714BE81FFF0D085E080938100F7
:107E100082E08093C00088E18093C10086E0809377
:107E2000C20080E18093C4008EE0C9D0259A86E02C
:107E300020E33CEF91E0309385002093840096BBD3
:107E4000B09BFECF1D9AA8958150A9F7CC24DD24C4
:107E500088248394B5E0AB2EA1E19A2EF3E0BF2EE7
:107E6000A2D0813461F49FD0082FAFD0023811F036
:107E7000013811F484E001C083E08DD089C08234E0
:107E800011F484E103C0853419F485E0A6D080C0E4
:107E9000853579F488D0E82EFF2485D0082F10E0AE
:107EA000102F00270E291F29000F111F8ED06801E7
:107EB0006FC0863521F484E090D080E0DECF843638
:107EC00009F040C070D06FD0082F6DD080E0C81688
:107ED00080E7D80618F4F601B7BEE895C0E0D1E017
:107EE00062D089930C17E1F7F0E0CF16F0E7DF06D8
:107EF00018F0F601B7BEE89568D007B600FCFDCFD4
:107F0000A601A0E0B1E02C9130E011968C91119780
:107F100090E0982F8827822B932B1296FA010C0160
:107F200087BEE89511244E5F5F4FF1E0A038BF0790
:107F300051F7F601A7BEE89507B600FCFDCF97BE46
:107F4000E89526C08437B1F42ED02DD0F82E2BD052
:107F50003CD0F601EF2C8F010F5F1F4F84911BD097
:107F6000EA94F801C1F70894C11CD11CFA94CF0C13
:107F7000D11C0EC0853739F428D08EE10CD085E9AC
:107F80000AD08FE07ACF813511F488E018D01DD067
:107F900080E101D065CF982F8091C00085FFFCCF94
:107FA0009093C60008958091C00087FFFCCF809118
:107FB000C00084FD01C0A8958091C6000895E0E648
:107FC000F0E098E1908380830895EDDF803219F02E
:107FD00088E0F5DFFFCF84E1DECF1F93182FE3DFCA
:107FE0001150E9F7F2DF1F91089580E0E8DFEE27F6
:047FF000FF270994CA
:027FFE00040479
:00000001FF
