:020000040000FA
:100000000C9459000C9481000C9481000C94810094
:100010000C9481000C9481000C9481000C9481005C
:100020000C9481000C9481000C9481000C9481004C
:100030000C9481000C9481000C9481000C9481003C
:100040000C94BB070C9481000C9489070C946307F3
:100050000C9481000C9481000C9481000C9481001C
:100060000C9405080C948100000000002500280075
:100070002B00040404040404040402020202020229
:10008000030303030303010204081020408001025C
:1000900004081020010204081020000000080002DB
:1000A0000100000304070000000000000000240914
:1000B000E20D11241FBECFEFD8E0DEBFCDBF11E0AF
:1000C000A0E0B1E0ECEFF2E202C005900D92AC3A94
:1000D000B107D9F723E0ACEAB1E001C01D92A83323
:1000E000B207E1F710E0C8E5D0E004C02197FE01B7
:1000F0000E944610C735D107C9F70E947A090C94AF
:1001000071110C940000089508958230910538F023
:10011000880F991F880F991F05970197F1F7089588
:10012000AF92BF92CF92DF92EF92FF920F931F9305
:10013000CF93DF936C017B018B01040F151FEB0143
:100140005E01AE18BF08C017D10759F06991D601FA
:10015000ED91FC910190F081E02DC6010995892B6C
:1001600079F7C501DF91CF911F910F91FF90EF902B
:10017000DF90CF90BF90AF900895FC01538D448DD8
:10018000252F30E0842F90E0821B930B541710F042
:10019000CF96089501970895FC01918D828D98174F
:1001A00061F0A28DAE0FBF2FB11D5D968C91928D27
:1001B0009F5F9F73928F90E008958FEF9FEF089558
:1001C000FC01918D828D981731F0828DE80FF11D21
:1001D000858D90E008958FEF9FEF0895FC01918D3C
:1001E000228D892F90E0805C9F4F821B91098F7335
:1001F000992708958FE692E00E94EE0021E0892B76
:1002000009F420E0822F089580E090E0892B29F006
:100210000E94FA0081110C9400000895FC01A48D45
:10022000A80FB92FB11DA35ABF4F2C91848D90E018
:1002300001968F739927848FA689B7892C93A089FB
:10024000B1898C91837080648C93938D848D981385
:1002500006C00288F389E02D80818F7D8083089518
:10026000EF92FF920F931F93CF93DF93EC0181E006
:10027000888F9B8D8C8D98131AC0E889F9898081AD
:1002800085FF15C09FB7F894EE89FF896083E889E0
:10029000F98980818370806480839FBF81E090E0D2
:1002A000DF91CF911F910F91FF90EF900895F62E5F
:1002B0000B8D10E00F5F1F4F0F731127E02E8C8DF9
:1002C0008E110CC00FB607FCFACFE889F98980813E
:1002D00085FFF5CFCE010E940E01F1CFEB8DEC0F23
:1002E000FD2FF11DE35AFF4FF0829FB7F8940B8F5B
:1002F000EA89FB8980818062CFCFCF93DF93EC01C5
:10030000888D8823B9F0AA89BB89E889F9898C91FD
:1003100085FD03C0808186FD0DC00FB607FCF7CFB9
:100320008C9185FFF2CF808185FFEDCFCE010E94B9
:100330000E01E9CFDF91CF91089590E0FC01E656E0
:10034000FF4F2491FC01EA57FF4F3491FC01EE5816
:10035000FF4FE491EE23C9F0222339F0233001F15D
:10036000A8F4213019F1223029F1F0E0EE0FFF1F3F
:10037000E859FF4FA591B4918FB7F894EC916111B2
:1003800026C030953E233C938FBF08952730A9F0B7
:100390002830C9F0243049F7809180008F7D03C058
:1003A000809180008F7780938000DFCF84B58F7736
:1003B00084BDDBCF84B58F7DFBCF8091B0008F777C
:1003C0008093B000D2CF8091B0008F7DF9CF3E2BCB
:1003D000DACF3FB7F8948091F5019091F601A091A2
:1003E000F701B091F80126B5A89B05C02F3F19F081
:1003F0000196A11DB11D3FBFBA2FA92F982F8827A5
:10040000BC01CD01620F711D811D911D42E0660F7F
:10041000771F881F991F4A95D1F708958F929F9251
:10042000AF92BF92CF92DF92EF92FF924B015C01AD
:100430000E94E9016B017C010E94E9016C197D09B0
:100440008E099F09683E734081059105A8F321E05C
:10045000821A9108A108B10888EEC80E83E0D81E60
:10046000E11CF11C81149104A104B10429F7FF904F
:10047000EF90DF90CF90BF90AF909F908F900895B6
:100480000895FC0183858F3F19F061E00C949D0174
:100490000895FC0180819181892B39F0A281B3817B
:1004A0009C9111968C919CBD8DBD83858F3F19F0D9
:1004B00060E00C949D010895AF92BF92CF92DF92BD
:1004C000EF92FF920F931F93CF93DF93EC018881FC
:1004D0009981892B89F06EBD0DB407FEFDCFBEB4A6
:1004E0008B2DDF91CF911F910F91FF90EF90DF90B7
:1004F000CF90BF90AF9008958885998511E0892BA2
:1005000009F010E8AA24A394862F812309F0A12CD6
:10051000062F2C813D814E815F8160E271EA87E088
:1005200090E00E942410F22EB02EE12CC22ED12C8D
:10053000FF2019F0C6010E9485008A85877F09F097
:1005400042C08D858F3F89F0902F912381E009F47F
:1005500080E08A1551F0EF85F8898F89992369F138
:100560009081892B8083AA24A394E989FA898081C8
:10057000998D892B8083FF2019F0C6010E94850088
:100580008E858F3F39F0EB89FC898081988D892396
:1005900009F0E12AE989FA899081898D809589237A
:1005A00080838E858F3F09F0BE2C88859985892BA5
:1005B000B9F5110F1111BCCF93CF9081809589238C
:1005C0008083A12CD2CFE989FA898081998D892BEA
:1005D0008083FF2019F0C6010E9485008D858F3F22
:1005E00049F0EF85F8898F89902F9123A9F09081A8
:1005F000892B8083E989FA899081898D8095892367
:1006000080838E858F3F69F2EB89FC898081988D8C
:10061000892339F2E12AC5CF908180958923E9CFDA
:100620001695C8CF8F929F92AF92BF92CF92DF92D2
:10063000EF92FF920F931F93CF93DF937C014B01B7
:100640006A01B22EA32E0E944902E401C80CD91CF3
:10065000CC15DD0569F4CB2DDA2D0C0F1D1FC0174D
:10066000D10759F06FEFC7010E945C028993F7CF61
:100670006991C7010E945C02EBCFC7010E94410251
:1006800081E0DF91CF911F910F91FF90EF90DF906C
:10069000CF90BF90AF909F908F9008958F929F9230
:1006A000AF92BF92CF92DF92EF92FF920F931F9380
:1006B000CF93DF937C01B62EA72E6A0149010E94D9
:1006C0004902E401080D191DC017D10761F4CB2DB3
:1006D000DA2DCC0EDD1ECC15DD0551F06991C70178
:1006E0000E945C02F8CF6991C7010E945C02ECCFC6
:1006F000C7010E94410281E0DF91CF911F910F91CC
:10070000FF90EF90DF90CF90BF90AF909F908F9031
:1007100008952091CD01260F3327331F2132310553
:10072000ECF420914502FC0190E080E0243069F077
:1007300082E00895A091CD012191AC0143555E4F17
:10074000A40FB52FB11D2C930196861798F38091B5
:10075000CD01680F6093CD0180E0089581E0089598
:100760001092450281E08093440210921F0261E0E2
:1007700082E10E949D0161E083E10E949D01E9EB1D
:10078000F0E080818E7F808380818D7F808388E40C
:100790008093B80085E48093BC00089510921E02F7
:1007A00010921D0210924C0210926E020E94B00331
:1007B00083E890E090931C0280931B0284E890E011
:1007C00090931A02809319020895CF93DF9391E0DA
:1007D0009093AC018823B9F0C091B800D091BA00D1
:1007E0008091BC008A7B8093BC0060E082E10E9423
:1007F0009D0160E083E10E949D010E94B003D093BF
:10080000BA00C093B800DF91CF9108958F929F9264
:10081000AF92BF92CF92DF92EF92FF920F931F930E
:10082000CF93DF93D0916E02D13208F0D7C0182F4A
:10083000C0916D020E94E9016B017C01809145022B
:1008400081116BC082E080934502109344028FEFC8
:100850008093430210924202D0934102ADE4B2E091
:10086000E1E2F2E080E0D81391C010922002809182
:100870002002CC0FC82BC093200280911F02813030
:1008800009F088C010921F020E94E9016B017C01EF
:10089000809120028093BB00809147029091480292
:1008A000A0914902B0914A02892B8A2B8B2BA1F08F
:1008B0000E94E901009147021091480220914902EB
:1008C00030914A026C197D098E099F090617170796
:1008D0002807390708F442C08091BC0083FDD8CFB7
:1008E00085EC8093BC000E94E9016B017C01809142
:1008F0004502823009F450C0809143028F3F09F4D1
:100900006FC080914302803209F46CC08091430231
:10091000803309F469C084E026C080914702909139
:100920004802A0914902B0914A02892B8A2B8B2B55
:1009300009F484CF0E94E901809047029090480218
:10094000A0904902B0904A026C197D098E099F0956
:1009500086169706A806B90608F070CF8091460261
:100960000E94E50385E010924C0210926E021092F4
:100970004B02DF91CF911F910F91FF90EF90DF908D
:10098000CF90BF90AF909F908F9008959D9191933D
:100990008F5F69CF85EEA5CF809147029091480285
:1009A000A0914902B0914A02892B8A2B8B2B09F422
:1009B0009ECF0E94E90100914702109148022091C8
:1009C000490230914A026C197D098E099F09061768
:1009D00017072807390708F08ACFC0CF81E0C3CFB7
:1009E00080E0C1CF82E0BFCF83E0BDCF1F93CF9324
:1009F000DF93EA01122FDC0111968D919C91DC01AD
:100A0000ED91FC910280F381E02D0995C817D9077B
:100A100029F4812F0E94060491E0811190E0892F32
:100A2000DF91CF911F910895CF92DF92EF92FF92C5
:100A30000F931F93CF93DF9300D0CDB7DEB7FC01A8
:100A40004787508B618B728B8285882371F1448735
:100A5000452F562F672F7727882349F143877F013A
:100A60008BE0E80EF11C9681878199838A83C08090
:100A7000D180C114D10409F443C0018510E098016C
:100A80002E5F3F4FD60114968D919C91821793074C
:100A900080F480E00F900F90DF91CF911F910F9124
:100AA000FF90EF90DF90CF9008954387D1CF448798
:100AB000D6CFF60181819281208131E030934B02C3
:100AC00020936D0210924C0210926E0201151105D6
:100AD00041F421E042E050E0B701C6010E94F60473
:100AE000D9CFDC01ED91FC910280F381E02DA801CA
:100AF000BE016F5F7F4F09950817190751F6E9CFBF
:100B0000A281B381109729F224813581018510E0FB
:100B10002330310579F48E7F89839A830F5F1F4FCD
:100B20009E012F5F3F4F42E050E0B701CD010E9490
:100B30004E03B0CF2115310519F49F779983F0CF7B
:100B40002230310511F49068F9CF2130310541F799
:100B50009F779064F3CFCF93DF93EC018B81882351
:100B6000A1F0888191E090934B0280936D021092E6
:100B70004C0210926E0281E00E94060491E0811105
:100B800090E0892FDF91CF9108950E94CE0381E0FC
:100B90008B83CE010E94AB05982F8111E2CFF1CF5C
:100BA0000895E0911E0280911D02E81730F4F0E0F4
:100BB000E750FE4F808190E008958FEF9FEF0895FA
:100BC00090911E0280911D022FEF3FEF981748F47D
:100BD000E92FF0E0E750FE4F208130E09F5F9093D7
:100BE0001E02C901089580911D0290911E02891B69
:100BF000990B0895CF92DF92EF92FF920F931F937C
:100C0000CF93DF937C01CB018A0120914B022223F9
:100C100089F0EB016B01C40ED51ECC15DD0569F022
:100C20006991D701ED91FC910190F081E02DC70110
:100C30000995F3CF642F0E948903C801DF91CF91FA
:100C40001F910F91FF90EF90DF90CF900895CF9379
:100C5000DF931F92CDB7DEB7698320914B02222329
:100C6000F9F020916E02203258F021E030E0FC01D2
:100C70003383228390E080E00F90DF91CF9108953D
:100C800080914C02E82FF0E0E35BFD4F9981908367
:100C90008F5F80934C0280936E0281E090E0ECCFF6
:100CA00061E0CE0101960E948903F7CFFC01248107
:100CB00031E030934B0220936D0210924C0210925F
:100CC0006E028385682B8CE093E00E94270681E00A
:100CD0000C94060490E080E008950F931F93CF9347
:100CE0008C01C62F0E9456066C2F6460C8010E94BA
:100CF00056066C2F6B7FC8010E94560683EC90E06D
:100D00000197F1F7CF911F910F9108950F931F93C2
:100D1000CF93DF938C01D62FC42F607F642B0E946A
:100D20006D0680E1D89FB00111246C2BC801DF91C2
:100D3000CF911F910F910C946D06CF93DF93CDB798
:100D4000DEB728970FB6F894DEBF0FBECDBF98E090
:100D5000E6E0F1E0DE01119601900D929A95E1F73F
:100D600090913003961708F46FEF262F30E0220F92
:100D7000331F41E050E04C0F5D1F240F351FF90178
:100D80006081680F606840E088E293E028960FB6C3
:100D9000F894DEBF0FBECDBFDF91CF910C948606D5
:100DA00041E00E94860681E090E00895FB010190F9
:100DB0000020E9F73197AF01461B570BDC01ED919D
:100DC000FC910280F381E02D09948F929F92AF9263
:100DD000BF920F931F93CF93DF93CDB7DEB7A19749
:100DE0000FB6F894DEBF0FBECDBF19A2423008F493
:100DF0004AE08E010F5D1F4F842E912CB12CA12C47
:100E0000A50194010E942410E62FB901CA01EA301D
:100E100004F5E05DD801EE938D01232B242B252BC7
:100E200079F790E080E0109729F0BD0188E293E027
:100E30000E94D606A1960FB6F894DEBF0FBECDBFB6
:100E4000DF91CF911F910F91BF90AF909F908F90A6
:100E50000895E95CDFCF85ED8093BC008091470267
:100E600090914802A0914902B0914A020796A11DB3
:100E7000B11D23E0B695A795979587952A95D1F74B
:100E80002091BC0024FD03C01092450208954091BA
:100E90004702509148026091490270914A02452BE5
:100EA000462B472B69F30097A105B10541F02AE2D3
:100EB0002A95F1F700C00197A109B109E1CF80910E
:100EC00046020C94E5031F920F920FB60F92112465
:100ED0002F933F934F935F936F937F938F939F9342
:100EE000AF93BF93EF93FF938FE692E00E940E01C2
:100EF000FF91EF91BF91AF919F918F917F916F91F2
:100F00005F914F913F912F910F900FBE0F901F90C7
:100F100018951F920F920FB60F9211242F938F9353
:100F20009F93EF93FF93E0917F02F0918002808185
:100F3000E0918502F091860282FD1BC09081809134
:100F400088028F5F8F7320918902821741F0E091B0
:100F50008802F0E0E159FD4F958F80938802FF9160
:100F6000EF919F918F912F910F900FBE0F901F9037
:100F700018958081F4CF1F920F920FB60F92112413
:100F80002F933F938F939F93AF93BF938091F101E2
:100F90009091F201A091F301B091F4013091F00130
:100FA00023E0230F2D3758F50196A11DB11D209385
:100FB000F0018093F1019093F201A093F301B093BB
:100FC000F4018091F5019091F601A091F701B091A3
:100FD000F8010196A11DB11D8093F5019093F601D2
:100FE000A093F701B093F801BF91AF919F918F91BA
:100FF0003F912F910F900FBE0F901F90189526E8EC
:10100000230F0296A11DB11DD2CF1F920F920FB6D2
:101010000F9211242F933F934F935F936F937F937E
:101020008F939F93AF93BF93EF93FF938091B900FA
:10103000887F803609F44AC0F0F5883209F4A7C0E9
:1010400018F5803109F49BC0B8F4882309F4F9C07D
:10105000883009F494C0FF91EF91BF91AF919F91B7
:101060008F917F916F915F914F913F912F910F9051
:101070000FBE0F901F901895883109F488C08032F8
:1010800051F78093430214C0803409F49DC040F4AA
:101090008033B9F38833F9F68093430285ECB0C00E
:1010A000803509F485C0883509F496C0883499F6EE
:1010B0000E942B07D0CF883909F48CC038F58837C7
:1010C00029F050F4883611F0803729F683E08093B8
:1010D00045021092EF0157C0883809F47BC080396F
:1010E00019F0803809F0B7CF8091EF01803208F015
:1010F00071C0E091EF0181E08E0F8093EF0180914C
:10110000BB00F0E0E153FE4F80833DC0803B39F0EF
:10111000E0F4803A09F479C0883A09F09CCF84E081
:10112000809345021092CE011092CD01E0911B02F6
:10113000F0911C0209958091CD0181110FC081E0D1
:101140008093CD011092AD0109C0803C09F4A6CF77
:10115000883C09F4A3CF883B09F07DCFE091CE0114
:1011600081E08E0F8093CE01F0E0E355FE4F808149
:101170008093BB009091CE018091CD0129C08091D8
:1011800020028093BB0085EC8093BC0064CF9091DB
:10119000420280914102981758F5E091420281E0A5
:1011A0008E0F80934202F0E0EF5DFD4F8081E9CF2A
:1011B000E091420281E08E0F809342028091BB0059
:1011C000F0E0EF5DFD4F80839091420280914102FB
:1011D0009817C8F285E8D8CFE091420281E08E0FDF
:1011E000809342028091BB00F0E0EF5DFD4F808371
:1011F0008091440281115CCF81E080931F0284EAD8
:101200008093BC001092450226CF85EC8093BC00F1
:10121000109245028091EF01803230F4E091EF01AD
:10122000F0E0E153FE4F10826091EF0170E0E09139
:101230001902F0911A028FEC91E009951092EF01DA
:101240000ACF1092430234CFEFE6F2E0138212820B
:1012500088EE93E0A0E0B0E084839583A683B78313
:1012600022E131E03183208325EC30E0358724878B
:1012700024EC30E03787268720EC30E0318B208B60
:1012800021EC30E0338B228B22EC30E0358B248B49
:1012900026EC30E0378B268B118E128E138E148E37
:1012A000ECE0F3E01382128284839583A683B783F4
:1012B00084E291E091838083E8E2F3E0138212827A
:1012C00086E391E09183808380E2848380E181875B
:1012D00082E082871386E8E1F3E01182108280E4E5
:1012E00083831086118612861386148615861686C9
:1012F00017860895CF93DF93CDB7DEB7AA970FB6C1
:10130000F894DEBF0FBECDBF789484B5826084BDF3
:1013100084B5816084BD85B5826085BD85B58160F9
:1013200085BD80916E00816080936E001092810077
:101330008091810082608093810080918100816032
:1013400080938100809180008160809380008091F3
:10135000B10084608093B1008091B000816080937F
:10136000B00080917A00846080937A0080917A0046
:10137000826080937A0080917A00816080937A0005
:1013800080917A00806880937A001092C1000E9458
:10139000CE0310922D0380913203823018F098E032
:1013A00090932D038093300362E370E080E090E03F
:1013B0000E940E026091330388E293E00E94560679
:1013C00068EE73E080E090E00E940E0260E388E245
:1013D00093E00E946D060BE416E4C8010197F1F753
:1013E00060E388E293E00E946D06C8010197F1F77F
:1013F00060E388E293E00E946D0683E592E0019746
:10140000F1F760E288E293E00E946D0660912D039F
:10141000606240E088E293E00E94860684E0809368
:101420002E0340E06CE088E293E00E94860640E0F4
:1014300061E088E293E00E9486060BE31FE1C801A9
:101440000197F1F742E0F42EF0922F0340E066E0BE
:1014500088E293E00E94860640E062E088E293E042
:101460000E948606C8010197F1F788E08093330354
:1014700060E088E293E00E945606E0917F02F091DE
:101480008002F082E0917F02F09180021082E09170
:101490007B02F0917C021082E0917D02F0917E024D
:1014A00080E1808310928702E0918302F0918402B0
:1014B00086E08083E0918102F091820280818061E8
:1014C0008083E0918102F091820280818860808334
:1014D000E0918102F0918202808180688083E091B6
:1014E0008102F091820280818F7D80838091180338
:1014F00090911903892BA9F486E090E00E944C108A
:10150000FC0180911B0380838CE093E092838183B4
:10151000138280E290E095838483F0931903E09333
:101520001803E0901803F09019030E94CE0311E015
:10153000D70113961C93C7010E94AB05811113C0FC
:101540006EE371E08FE692E00E94D60669E571E0F5
:101550008FE692E00E94D6066AE070E080E090E0BC
:101560000E940E02F9CF80E090E1A0E0B0E080930D
:101570001C0390931D03A0931E03B0931F038AE0E6
:1015800090E0A0E0B0E08093200390932103A0932B
:101590002203B093230380E090E0A0E0B0E48093C6
:1015A000240390932503A0932603B09327038091EF
:1015B0001803909119031BA21CA21DA21EA29D8BB1
:1015C0008C8B1F8A1E8A1D8F35E0E32EF12CFB8E3B
:1015D000EA8E1E8F02E00C8F40E050E160E070E088
:1015E000CE0144960E94140580911803909119032E
:1015F000188A198A1A8A1B8A9A8389831C821B82F9
:101600001A8718861F821B8709874FE959E360E014
:1016100070E0CE0101960E94140580931A0380E0C9
:1016200098E2A0E0B0E080931C0390931D03A09388
:101630001E03B0931F0389E190E0A0E0B0E0809327
:10164000200390932103A0932203B09323038DECF6
:101650009CECACE4BFE38093240390932503A09318
:101660002603B093270380911803909119031BA2BE
:101670001CA21DA21EA29D8B8C8B1F8A1E8A1D8FF1
:10168000FB8EEA8E1E8F0C8F40E058E260E070E027
:10169000CE0144960E94140580911803909119037D
:1016A000188A198A1A8A1B8A9A8389831C821B8248
:1016B0001A8718861F821B8709874FE959E360E064
:1016C00070E0CE0101960E94140580931A036CE528
:1016D00071E08FE692E00E94D60669E571E08FE640
:1016E00092E00E94D60660E084E00E949D066AE8CF
:1016F00071E088E293E00E94D606809118039091F1
:1017000019031BA21CA21DA21EA29D8B8C8B1F8ADB
:101710001E8A11E01D8FE5E0F0E0FB8FEA8F1E8F3F
:1017200002E00C8F40911C0350911D0360911E0339
:1017300070911F03CE0144960E941405E090180397
:10174000F0901903188A198A1A8A1B8AFA82E98288
:101750001C821B821A8724E030E038872F831B8786
:10176000098784E08FA318A6E114F10409F431C1BC
:10177000D70114968D919C911597892B09F429C155
:101780008C9110934B0280936D0210924C02109238
:101790006E0220E041E050E0BE01695D7F4FC7016D
:1017A0000E94F604782E882309F413C1B12CA12CD1
:1017B00066246394F7018481958122E0C22ED12CA6
:1017C000CA18DB088C159D0508F46C01D7010C9133
:1017D0000E94E9011B012C0180914502811172C018
:1017E0001C2D113208F010E26092450221E082E0E7
:1017F00090E08C199D09A816B90608F420E0209302
:101800004402BFEFB0934302109242028FEF810F68
:10181000809341026092200280912002000F082BE9
:101820000093200280911F02813009F096C010922F
:101830001F020E94E9011B012C018091200280936C
:10184000BB008091470290914802A0914902B0915B
:101850004A02892B8A2B8B2BA1F00E94E90120914F
:101860004702309148024091490250914A02621960
:10187000730984099509261737074807590708F49B
:1018800042C08091BC0083FDD8CFE5ECE093BC0062
:101890000E94E9011B012C0180914502813009F46D
:1018A00060C080914202811710F410914202A1E2BF
:1018B000B2E0E9EFF1E080E0811751F19D91919361
:1018C0008F5FFACF8091470290914802A091490220
:1018D000B0914A02892B8A2B8B2B09F47DCF0E9471
:1018E000E90120914702309148024091490250910C
:1018F0004A026219730984099509261737074807B0
:10190000590708F069CF809146020E94E50310E074
:1019100010921E0210931D021C151D0409F059C0DF
:1019200001E010E00C0F1D1F0A0D1B1D4801C8012E
:10193000881999098C159D05B0F5D70111968D91DF
:101940009C91DC01ED91FC910284F385E02D0995D9
:10195000F80183870F5F1F4FEACFF5EEF093BC00CD
:1019600097CF8091470290914802A0914902B0918F
:101970004A02892B8A2B8B2B09F48ECF0E94E90116
:1019800020914702309148024091490250914A0209
:1019900062197309840995092617370748075907FB
:1019A00008F07ACFB0CFAC0CBD1CF2E0AF16B1049A
:1019B00008F400CFEC85FD85FAA7E9A78B8588237D
:1019C00049F029A53AA53227232732273AA729A784
:1019D00001C0712C70921A03A9A5BAA5BD01BB0F55
:1019E000880B990B0E94FD0E6B017C016091200316
:1019F0007091210380912203909123030E94FB0E9A
:101A00009B01AC01C701B6010E945A0E6B017C011B
:101A10004B015C0140E061E088E293E00E948606B1
:101A20008BE39FE10197F1F760E080E00E949D0663
:101A300062E971E088E293E00E94D60661E080E00E
:101A40000E949D06A7019601C701B6010E941F10C2
:101A50006AE971E081111AC026013701E89477F82C
:101A60002FEF3FEF4FE75FE7C301B2010E941F1066
:101A700081112DC02FEF3FEF4FE75FE7C301B201A8
:101A80000E94550E18161CF56EE971E088E293E08D
:101A90000E94D60661E086E00E949D0666EA71E03B
:101AA00088E293E00E94D60668EE73E080E090E062
:101AB0000E940E0280E090E0892B09F41ECE0E9465
:101AC000FA00882309F419CE0E94000016CE2FEFE9
:101AD0003FEF4FE75FE4C701B6010E94AD0F181654
:101AE0001CF462EA71E0D2CF2FEF3FEF4FE75FECDB
:101AF000C701B6010E94550E87FDF3CF20E030E00C
:101B0000A901C701B6010E94550E87FF0CC041E034
:101B10006DE288E293E00E94860646015701B7FA1B
:101B2000B094B7F8B0942AE037ED43EA5BE3C5011F
:101B3000B4010E94E90D4B015C010E94CC0E6B01C7
:101B40007C010E94FB0E9B01AC01C501B4010E9407
:101B5000E80D4B015C014AE0C701B6010E94E506B1
:101B600041E06EE288E293E00E94860620E030E0E9
:101B700040E251E4C501B4010E94B20F4B015C0187
:101B80000E94CC0E6B01F12CE12C4AE0C701B6019A
:101B90000E94E506C701B6010E94FB0E9B01AC0145
:101BA000C501B4010E94E80D20E030E040E251E4BC
:101BB0000E94B20F0E94CC0E90E080E04AE00E94AA
:101BC000E50668CF80911803909119030C94E810F2
:101BD0005058BB27AA270E94000E0C94730F0E9436
:101BE000650F38F00E946C0F20F039F49F3F19F414
:101BF00026F40C94620F0EF4E095E7FB0C945C0F56
:101C0000E92F0E94840F58F3BA17620773078407FD
:101C1000950720F079F4A6F50C94A60F0EF4E09544
:101C20000B2EBA2FA02D0B01B90190010C01CA0196
:101C3000A0011124FF27591B99F0593F50F4503E41
:101C400068F11A16F040A22F232F342F4427585F33
:101C5000F3CF469537952795A795F0405395C9F74B
:101C60007EF41F16BA0B620B730B840BBAF0915003
:101C7000A1F0FF0FBB1F661F771F881FC2F70EC0A2
:101C8000BA0F621F731F841F48F487957795679575
:101C9000B795F7959E3F08F0B0CF9395880F08F061
:101CA0009927EE0F9795879508950E94380F08F4AD
:101CB00081E008950E946E0E0C94730F0E946C0FC9
:101CC00058F00E94650F40F029F45F3F29F00C9412
:101CD0005C0F51110C94A70F0C94620F0E94840F9B
:101CE00068F39923B1F3552391F3951B550BBB274B
:101CF000AA2762177307840738F09F5F5F4F220F90
:101D0000331F441FAA1FA9F335D00E2E3AF0E0E886
:101D100032D091505040E695001CCAF72BD0FE2FD0
:101D200029D0660F771F881FBB1F26173707480764
:101D3000AB07B0E809F0BB0B802DBF01FF2793581C
:101D40005F4F3AF09E3F510578F00C945C0F0C9475
:101D5000A70F5F3FE4F3983ED4F386957795679598
:101D6000B795F7959F5FC9F7880F911D9695879551
:101D700097F90895E1E0660F771F881FBB1F621770
:101D800073078407BA0720F0621B730B840BBA0B2E
:101D9000EE1F88F7E09508950E948C0F88F09F57FA
:101DA00098F0B92F9927B751B0F0E1F0660F771F7F
:101DB000881F991F1AF0BA95C9F714C0B13091F075
:101DC0000E94A60FB1E008950C94A60F672F782FFC
:101DD0008827B85F39F0B93FCCF38695779567953A
:101DE000B395D9F73EF490958095709561957F4FA6
:101DF0008F4F9F4F0895E89409C097FB3EF490954C
:101E00008095709561957F4F8F4F9F4F9923A9F0D3
:101E1000F92F96E9BB279395F69587957795679562
:101E2000B795F111F8CFFAF4BB0F11F460FF1BC0A6
:101E30006F5F7F4F8F4F9F4F16C0882311F096E939
:101E400011C0772321F09EE8872F762F05C06623E7
:101E500071F096E8862F70E060E02AF09A95660FA0
:101E6000771F881FDAF7880F9695879597F9089559
:101E7000990F0008550FAA0BE0E8FEEF161617069B
:101E8000E807F907C0F012161306E407F50798F003
:101E9000621B730B840B950B39F40A2661F0232B1C
:101EA000242B252B21F408950A2609F4A140A69598
:101EB0008FEF811D811D089597F99F6780E870E07D
:101EC00060E008959FEF80EC089500240A941616B0
:101ED000170618060906089500240A941216130618
:101EE000140605060895092E0394000C11F48823A6
:101EF00052F0BB0F40F4BF2B11F460FF04C06F5FC2
:101F00007F4F8F4F9F4F089557FD9058440F551F97
:101F100059F05F3F71F04795880F97FB991F61F06B
:101F20009F3F79F087950895121613061406551FE2
:101F3000F2CF4695F1DF08C0161617061806991F4E
:101F4000F1CF86957105610508940895E894BB2743
:101F500066277727CB0197F908950E94380F08F478
:101F60008FEF08950E94C50F0C94730F0E94650FA8
:101F700038F00E946C0F20F0952311F00C945C0F48
:101F80000C94620F11240C94A70F0E94840F70F31D
:101F9000959FC1F3950F50E0551F629FF001729F0E
:101FA000BB27F00DB11D639FAA27F00DB11DAA1F1D
:101FB000649F6627B00DA11D661F829F2227B00D6A
:101FC000A11D621F739FB00DA11D621F839FA00DF5
:101FD000611D221F749F3327A00D611D231F849F45
:101FE000600D211D822F762F6A2F11249F5750409C
:101FF0009AF0F1F088234AF0EE0FFF1FBB1F661F17
:10200000771F881F91505040A9F79E3F510580F0DF
:102010000C945C0F0C94A70F5F3FE4F3983ED4F34D
:10202000869577956795B795F795E7959F5FC1F783
:10203000FE2B880F911D9695879597F908950E941C
:10204000380F880B990B0895A1E21A2EAA1BBB1B0F
:10205000FD010DC0AA1FBB1FEE1FFF1FA217B30774
:10206000E407F50720F0A21BB30BE40BF50B661F8A
:10207000771F881F991F1A9469F76095709580954E
:1020800090959B01AC01BD01CF010895EE0FFF1F9C
:102090000590F491E02D09940F931F93CF93DF9354
:1020A0008230910510F482E090E0E0913603F091E7
:1020B000370330E020E0B0E0A0E0309799F421153C
:1020C000310509F44AC0281B390B24303105D8F5F5
:1020D0008A819B816115710589F1FB01938382835C
:1020E000FE0111C0408151810281138148175907B7
:1020F000E0F04817590799F4109761F012960C9385
:10210000129713961C933296CF01DF91CF911F91B6
:102110000F9108950093360310933703F4CF2115E0
:10212000310551F04217530738F0A901DB019A013C
:10213000BD01DF01F801C1CFEF01F9CF9093370363
:1021400080933603CDCFFE01E20FF31F819391936D
:102150002250310939832883D7CF2091340330911D
:102160003503232B41F42091020130910301309378
:102170003503209334032091000130910101211592
:10218000310541F42DB73EB740910401509105014E
:10219000241B350BE0913403F0913503E217F3076C
:1021A000A0F42E1B3F0B2817390778F0AC014E5FC7
:1021B0005F4F2417350748F04E0F5F1F50933503CC
:1021C00040933403819391939FCFF0E0E0E09CCF64
:1021D000CF93DF930097E9F0FC01329713821282CC
:1021E000A0913603B0913703ED0130E020E0109765
:1021F000A1F420813181820F931F2091340330910B
:1022000035032817390709F061C0F0933503E093CF
:102210003403DF91CF910895EA01CE17DF07E8F587
:102220004A815B819E0141155105B1F7E901FB83AC
:10223000EA8349915991C40FD51FEC17FD0761F44A
:10224000808191810296840F951FE901998388838B
:10225000828193819B838A83F0E0E0E012968D91E6
:102260009C9113970097B9F52D913C911197CD0151
:102270000296820F931F2091340330913503281763
:10228000390739F6309751F510923703109236031B
:10229000B0933503A0933403BCCFD383C283408172
:1022A0005181840F951FC817D90761F44E5F5F4FA6
:1022B00088819981480F591F518340838A819B816E
:1022C000938382832115310509F0B0CFF093370352
:1022D000E09336039ECFFD01DC01C0CF1382128252
:1022E000D7CF10E0C8E5D0E004C0FE010E94461040
:1022F0002196C935D107C9F7F894FFCF00003803FC
:102300008000000040001400540000000000300174
:102310009000BD007D01EE00CC00E0000000000058
:102320002706FA056A06D005F305E005D105000089
:102330000000D00690006A0640024661696C656440
:1023400020746F2066696E6420494E413231392015
:1023500063686970000D0A004D6561737572696E7E
:102360006720766F6C7461676520616E64206375A9
:102370007272656E74207769746820494E413231FB
:1023800039202E2E2E00414D4D4554455200416DB1
:102390006D65746572006E616E00696E66006F76C1
:0823A0006600416D707300003E
:107E0000112484B714BE81FFF0D085E080938100F7
:107E100082E08093C00088E18093C10086E0809377
:107E2000C20080E18093C4008EE0C9D0259A86E02C
:107E300020E33CEF91E0309385002093840096BBD3
:107E4000B09BFECF1D9AA8958150A9F7CC24DD24C4
:107E500088248394B5E0AB2EA1E19A2EF3E0BF2EE7
:107E6000A2D0813461F49FD0082FAFD0023811F036
:107E7000013811F484E001C083E08DD089C08234E0
:107E800011F484E103C0853419F485E0A6D080C0E4
:107E9000853579F488D0E82EFF2485D0082F10E0AE
:107EA000102F00270E291F29000F111F8ED06801E7
:107EB0006FC0863521F484E090D080E0DECF843638
:107EC00009F040C070D06FD0082F6DD080E0C81688
:107ED00080E7D80618F4F601B7BEE895C0E0D1E017
:107EE00062D089930C17E1F7F0E0CF16F0E7DF06D8
:107EF00018F0F601B7BEE89568D007B600FCFDCFD4
:107F0000A601A0E0B1E02C9130E011968C91119780
:107F100090E0982F8827822B932B1296FA010C0160
:107F200087BEE89511244E5F5F4FF1E0A038BF0790
:107F300051F7F601A7BEE89507B600FCFDCF97BE46
:107F4000E89526C08437B1F42ED02DD0F82E2BD052
:107F50003CD0F601EF2C8F010F5F1F4F84911BD097
:107F6000EA94F801C1F70894C11CD11CFA94CF0C13
:107F7000D11C0EC0853739F428D08EE10CD085E9AC
:107F80000AD08FE07ACF813511F488E018D01DD067
:107F900080E101D065CF982F8091C00085FFFCCF94
:107FA0009093C60008958091C00087FFFCCF809118
:107FB000C00084FD01C0A8958091C6000895E0E648
:107FC000F0E098E1908380830895EDDF803219F02E
:107FD00088E0F5DFFFCF84E1DECF1F93182FE3DFCA
:107FE0001150E9F7F2DF1F91089580E0E8DFEE27F6
:047FF000FF270994CA
:027FFE00040479
:00000001FF
