:020000040000FA
:100000000C945D000C9485000C9485000C94850084
:100010000C9485000C9485000C9485000C9485004C
:100020000C9485000C9485000C9485000C9485003C
:100030000C9485000C9485000C9485000C9485002C
:100040000C9462040C9485000C9485000C9485003B
:100050000C9485000C9485000C9485000C9485000C
:100060000C94AC040C948500000000080002010010
:100070000003040700000000000000000000000072
:10008000250028002B0000000000240027002A0083
:10009000040404040404040402020202020203032E
:1000A0000303030301020408102040800102040836
:1000B0001020010204081020CB0511241FBECFEF31
:1000C000D8E0DEBFCDBF11E0A0E0B1E0EEE9F4E1A1
:1000D00002C005900D92AE35B107D9F722E0AEE52A
:1000E000B1E001C01D92AF33B207E1F710E0CDE5FA
:1000F000D0E004C02197FE010E94470ACC35D10709
:10010000C9F70E94EB050C944D0A0C940000CF93A4
:10011000DF9390E0FC01EC55FF4F249180579F4FF7
:10012000FC0184918823C1F090E0880F991FFC01A5
:10013000EA57FF4FC591D491FC01E458FF4FA591B8
:10014000B4919FB7F8948881E22FE0958E2388833D
:100150008C91E823EC939FBFDF91CF910895089590
:100160000895AF92BF92CF92DF92EF92FF920F93DA
:100170001F93CF93DF936C017B018B01040F151F3D
:10018000EB015E01AE18BF08C017D10759F06991A5
:10019000D601ED91FC910190F081E02DC601099509
:1001A000892B79F7C501DF91CF911F910F91FF90B6
:1001B000EF90DF90CF90BF90AF90089590E0FC015A
:1001C000E859FF4F2491FC01EC55FF4F3491FC019D
:1001D000E057FF4FE491EE23C9F0222339F023309A
:1001E00001F1A8F4213019F1223029F1F0E0EE0FED
:1001F000FF1FE458FF4FA591B4918FB7F894EC918D
:10020000611126C030953E233C938FBF089527305F
:10021000A9F02830C9F0243049F7809180008F7D03
:1002200003C0809180008F7780938000DFCF84B5FA
:100230008F7784BDDBCF84B58F7DFBCF8091B000FD
:100240008F778093B000D2CF8091B0008F7DF9CFAF
:100250003E2BDACF2091000190E4299F90011124D8
:100260008E50822B80937C0080917A0080648093F2
:100270007A0080917A0086FDFCCF80917800909181
:10028000790008953FB7F894809115029091160275
:10029000A0911702B091180226B5A89B05C02F3F68
:1002A00019F00196A11DB11D3FBFBA2FA92F982F9C
:1002B0008827BC01CD01620F711D811D911D42E097
:1002C000660F771F881F991F4A95D1F708958F925F
:1002D0009F92AF92BF92CF92DF92EF92FF924B012B
:1002E0005C010E9442016B017C010E9442016C1979
:1002F0007D098E099F09683E734081059105A8F329
:1003000021E0821A9108A108B10888EEC80E83E0A6
:10031000D81EE11CF11C81149104A104B10429F739
:10032000FF90EF90DF90CF90BF90AF909F908F9015
:100330000895089520919F01260F3327331F2132FE
:100340003105ECF42091E801FC0190E080E02430DC
:1003500069F082E00895A0919F012191AC0141587C
:100360005E4FA40FB52FB11D2C930196861798F3FD
:1003700080919F01680F60939F0180E0089581E064
:1003800008951092E80181E08093E7011092C20184
:1003900061E082E10E94DE0061E083E10E94DE0014
:1003A000E9EBF0E080818E7F808380818D7F808388
:1003B00088E48093B80085E48093BC000895CF93CF
:1003C000DF9391E090937E018823B9F0C091B8004B
:1003D000D091BA008091BC008A7B8093BC0060E021
:1003E00082E10E94DE0060E083E10E94DE000E9464
:1003F000C101D093BA00C093B800DF91CF910895A6
:100400000895E091200280911F02E81730F4F0E097
:10041000E25AFE4F808190E008958FEF9FEF08959C
:100420009091200280911F022FEF3FEF981748F420
:10043000E92FF0E0E25AFE4F208130E09F5F909379
:100440002002C901089580911F0290912002891B0A
:10045000990B0895CF92DF92EF92FF920F931F9323
:10046000CF93DF937C01CB018A012091EE012223FF
:1004700089F0EB016B01C40ED51ECC15DD0569F0CA
:100480006991D701ED91FC910190F081E02DC701B8
:100490000995F3CF642F0E949A01C801DF91CF9193
:1004A0001F910F91FF90EF90DF90CF900895CF9321
:1004B000DF931F92CDB7DEB769832091EE0122232F
:1004C000F9F020911D02203258F021E030E0FC01CB
:1004D0003383228390E080E00F90DF91CF910895E5
:1004E00080911E02E82FF0E0E151FE4F9981908348
:1004F0008F5F80931E0280931D0281E090E0ECCF1D
:1005000061E0CE0101960E949A01F7CFCF92DF926F
:10051000EF92FF920F931F93CF93DF93FC01C4815F
:1005200021E02093EE01C0930F0210921E02109260
:100530001D028385682B87E292E00E945702D091CA
:100540001D02D13208F092C00E9442016B017C0171
:100550008091E801811165C082E08093E80181E02B
:100560008093E7018FEF8093E6011092E501D0932D
:10057000E401AFEEB1E0E4ECF1E080E0D81385C037
:100580001092C3018091C301CC0FC82BC093C3014B
:100590008091C201813009F07CC01092C2010E949A
:1005A00042016B017C018091C3018093BB0080916B
:1005B000EA019091EB01A091EC01B091ED01892B42
:1005C0008A2B8B2B99F00E9442010091EA01109135
:1005D000EB012091EC013091ED016C197D098E0940
:1005E0009F090617170728073907E0F18091BC001B
:1005F00083FDD9CF85EC8093BC000E9442016B0142
:100600007C018091E801823009F445C08091E601C7
:100610008F3F61F18091E601803241F18091E601E6
:1006200025C08091EA019091EB01A091EC01B0917D
:10063000ED01892B8A2B8B2B09F48ACF0E94420172
:100640000091EA011091EB012091EC013091ED0154
:100650006C197D098E099F090617170728073907A6
:1006600008F076CF8091E9010E94DF0110921E020E
:1006700010921D021092EE01DF91CF911F910F9108
:10068000FF90EF90DF90CF9008959D9191938F5FB1
:1006900075CF85EEB0CF8091EA019091EB01A091EA
:1006A000EC01B091ED01892B8A2B8B2B09F4A9CF9A
:1006B0000E9442010091EA011091EB012091EC01AE
:1006C0003091ED016C197D098E099F0906171707F6
:1006D0002807390708F095CFC5CF90E080E008954E
:1006E000FC0101900020E9F73197AF01481B590B3D
:1006F000BC0183E392E00C94B1008F929F92AF9281
:10070000BF920F931F93CF93DF93CDB7DEB7A1971F
:100710000FB6F894DEBF0FBECDBF19A2423008F469
:100720004AE08E010F5D1F4F842E912CB12CA12C1D
:10073000A50194010E94250AE62FB901CA01EA30F9
:10074000F4F4E05DD801EE938D01232B242B252BAF
:1007500079F790E080E0109719F0CD010E947003C6
:10076000A1960FB6F894DEBF0FBECDBFDF91CF913B
:100770001F910F91BF90AF909F908F900895E95C6B
:10078000E1CF0F931F93CF938C01C62F0E94860257
:100790006C2F6460C8010E9486026C2F6B7FC801B9
:1007A0000E94860283EC90E00197F1F7CF911F91B0
:1007B0000F9108950F931F93CF93DF938C01D62F42
:1007C000C42F607F642B0E94C10380E1D89FB001D9
:1007D00011246C2BC801DF91CF911F910F910C94C4
:1007E000C103CF93DF93CDB7DEB728970FB6F89448
:1007F000DEBF0FBECDBF98E0E1E0F1E0DE01119673
:1008000001900D929A95E1F790913B02961708F4AA
:100810006FEF262F30E0220F331F41E050E04C0FE6
:100820005D1F240F351FF9016081680F606840E08B
:1008300083E392E028960FB6F894DEBF0FBECDBFDB
:10084000DF91CF910C94DA0341E00E94DA0381E05A
:1008500090E0089585ED8093BC008091EA0190912D
:10086000EB01A091EC01B091ED010796A11DB11D26
:1008700023E0B695A795979587952A95D1F720916E
:10088000BC0024FD03C01092E80108954091EA01E4
:100890005091EB016091EC017091ED01452B462BDD
:1008A000472B69F30097A105B10541F02AE22A958B
:1008B000F1F700C00197A109B109E1CF8091E901E9
:1008C0000C94DF011F920F920FB60F9211242F93F9
:1008D0003F938F939F93AF93BF9380911102909119
:1008E0001202A0911302B09114023091100223E081
:1008F000230F2D3758F50196A11DB11D209310022D
:100900008093110290931202A0931302B0931402E9
:100910008091150290911602A0911702B0911802D1
:100920000196A11DB11D8093150290931602A0930C
:100930001702B0931802BF91AF919F918F913F9191
:100940002F910F900FBE0F901F90189526E8230F40
:100950000296A11DB11DD2CF1F920F920FB60F921A
:1009600011242F933F934F935F936F937F938F93B4
:100970009F93AF93BF93EF93FF938091B900887FCC
:10098000803609F44AC0F0F5883209F4A7C018F59A
:10099000803109F49BC0B8F4882309F4F9C0883089
:1009A00009F494C0FF91EF91BF91AF919F918F9106
:1009B0007F916F915F914F913F912F910F900FBE5B
:1009C0000F901F901895883109F488C0803251F734
:1009D0008093E60114C0803409F49DC040F4803354
:1009E000B9F38833F9F68093E60185ECB0C0803521
:1009F00009F485C0883509F496C0883499F60E94B8
:100A00002A04D0CF883909F48CC038F5883729F00A
:100A100050F4883611F0803729F683E08093E8019E
:100A20001092C10157C0883809F47BC0803919F091
:100A3000803809F0B7CF8091C101803208F071C0D1
:100A4000E091C10181E08E0F8093C1018091BB00D4
:100A5000F0E0EF55FE4F80833DC0803B39F0E0F47D
:100A6000803A09F479C0883A09F09CCF84E08093F9
:100A7000E8011092A00110929F01E0911B02F091F9
:100A80001C02099580919F0181110FC081E0809324
:100A90009F0110927F0109C0803C09F4A6CF883CD9
:100AA00009F4A3CF883B09F07DCFE091A00181E05C
:100AB0008E0F8093A001F0E0E158FE4F808180937B
:100AC000BB009091A00180919F0129C08091C3013A
:100AD0008093BB0085EC8093BC0064CF9091E501CE
:100AE0008091E401981758F5E091E50181E08E0FBF
:100AF0008093E501F0E0EC53FE4F8081E9CFE09177
:100B0000E50181E08E0F8093E5018091BB00F0E06C
:100B1000EC53FE4F80839091E5018091E40198179A
:100B2000C8F285E8D8CFE091E50181E08E0F80938F
:100B3000E5018091BB00F0E0EC53FE4F8083809193
:100B4000E70181115CCF81E08093C20184EA809348
:100B5000BC001092E80126CF85EC8093BC00109277
:100B6000E8018091C101803230F4E091C101F0E0F0
:100B7000EF55FE4F10826091C10170E0E0911902C3
:100B8000F0911A0281EA91E009951092C1010ACF11
:100B90001092E60134CFE7E2F2E01382128288EE8F
:100BA00093E0A0E0B0E084839583A683B7838DE0D3
:100BB00091E091838083E3E3F2E0138212828FE17C
:100BC00091E09183808380E2848380E1818782E069
:100BD000828713860895789484B5826084BD84B535
:100BE000816084BD85B5826085BD85B5816085BD28
:100BF00080916E00816080936E00109281008091E0
:100C00008100826080938100809181008160809367
:100C10008100809180008160809380008091B1008C
:100C200084608093B1008091B00081608093B000B7
:100C300080917A00846080937A0080917A0082604B
:100C400080937A0080917A00816080937A0080910D
:100C50007A00806880937A001092C100109220027E
:100C600010921F0210921E0210921D020E94C101DA
:100C70008FEA90E090931C0280931B0280EB90E03F
:100C800090931A02809319021092380280913D02CB
:100C9000823018F098E09093380280933B0262E330
:100CA00070E080E090E00E94670160913E0283E383
:100CB00092E00E94860268EE73E080E090E00E947D
:100CC000670160E383E392E00E94C103CBE4D6E4D2
:100CD000CE010197F1F760E383E392E00E94C10344
:100CE0002197F1F760E383E392E00E94C10383E57B
:100CF00092E00197F1F760E283E392E00E94C10382
:100D000060913802606240E083E392E00E94DA037F
:100D100084E08093390240E06CE083E392E00E943B
:100D2000DA0340E061E083E392E00E94DA03CBE380
:100D3000DFE1CE010197F1F782E080933A0240E0D3
:100D400066E083E392E00E94DA0340E062E083E33E
:100D500092E00E94DA032197F1F788E080933E0247
:100D600060E083E392E00E9486021092000180E13D
:100D70000E94870081E10E94870060E084E00E9479
:100D8000F10387E291E00E94700368EE73E080E077
:100D900090E00E946701CBE3DFE100E010E080E13A
:100DA0000E942A016C01909326028093250281E122
:100DB0000E942A017C01B601DD0C880B990B0E9470
:100DC000FE0820E030E040EA50E40E94B30920E051
:100DD00030E040E85AE30E94B3092DEC3CEC4CE4CF
:100DE0005EE30E945B084B015C01B701FF0C880BBE
:100DF000990B0E94FE0820E030E040EA50E40E9497
:100E0000B30920E030E040E85AE30E94B3092DEC3A
:100E10003CEC4CE45EE30E945B089B01AC01C50125
:100E2000B4010E94E907609321027093220280932B
:100E300023029093240240E061E083E392E00E9469
:100E4000DA03CE010197F1F760E080E00E94F10340
:100E500081E391E00E947003C0902102D0902202B1
:100E6000E0902302F090240220E030E0A901C701C5
:100E7000B6010E94560861E087FF14C080E00E941E
:100E8000F1038BE391E00E94700368EE73E080E071
:100E900090E00E9467010115110509F480CF0E94BE
:100EA00000007DCF80E00E94F103A7019601C701F9
:100EB000B6010E94200A882359F08CE491E00E9438
:100EC000700361E086E00E94F10388E591E0DBCFEA
:100ED00046015701E894B7F82FEF3FEF4FE75FE780
:100EE000C501B4010E94200A81110DC02FEF3FEF10
:100EF0004FE75FE7C501B4010E94560818161CF4BD
:100F000080E591E0DCCF2FEF3FEF4FE75FE4C701D3
:100F1000B6010E94AE0918161CF484E591E0CFCF0B
:100F20002FEF3FEF4FE75FECC701B6010E94560875
:100F300087FDF3CF2AE037ED43EA5BE3C701B60153
:100F40000E94EA074B015C010E94CD086B017C0105
:100F50000E94FC089B01AC01C501B4010E94E90795
:100F60004B015C014AE0C701B6010E947D0341E0EC
:100F70006EE283E392E00E94DA0320E030E040E298
:100F800051E4C501B4010E94B3094B015C010E9408
:100F9000CD086B01F12CE12C4AE0C701B6010E949B
:100FA0007D03C701B6010E94FC089B01AC01C5018D
:100FB000B4010E94E90720E030E040E251E40E94E1
:100FC000B3090E94CD0890E080E04AE00E947D03D2
:100FD00078CF5058BB27AA270E9401080C947409A7
:100FE0000E94660938F00E946D0920F039F49F3F95
:100FF00019F426F40C9463090EF4E095E7FB0C94C5
:101000005D09E92F0E94850958F3BA176207730733
:101010008407950720F079F4A6F50C94A7090EF43F
:10102000E0950B2EBA2FA02D0B01B90190010C01F8
:10103000CA01A0011124FF27591B99F0593F50F410
:10104000503E68F11A16F040A22F232F342F442768
:10105000585FF3CF469537952795A795F040539560
:10106000C9F77EF41F16BA0B620B730B840BBAF030
:101070009150A1F0FF0FBB1F661F771F881FC2F79B
:101080000EC0BA0F621F731F841F48F487957795AF
:101090006795B795F7959E3F08F0B0CF9395880F69
:1010A00008F09927EE0F9795879508950E943909C2
:1010B00008F481E008950E946F080C9474090E945E
:1010C0006D0958F00E94660940F029F45F3F29F04D
:1010D0000C945D0951110C94A8090C9463090E94A9
:1010E000850968F39923B1F3552391F3951B550BAB
:1010F000BB27AA2762177307840738F09F5F5F4FEB
:10110000220F331F441FAA1FA9F335D00E2E3AF029
:10111000E0E832D091505040E695001CCAF72BD041
:10112000FE2F29D0660F771F881FBB1F2617370792
:101130004807AB07B0E809F0BB0B802DBF01FF27C4
:1011400093585F4F3AF09E3F510578F00C945D093B
:101150000C94A8095F3FE4F3983ED4F38695779505
:101160006795B795F7959F5FC9F7880F911D96957D
:10117000879597F90895E1E0660F771F881FBB1FD9
:10118000621773078407BA0720F0621B730B840B86
:10119000BA0BEE1F88F7E09508950E948D0988F03C
:1011A0009F5798F0B92F9927B751B0F0E1F0660F2B
:1011B000771F881F991F1AF0BA95C9F714C0B1306C
:1011C00091F00E94A709B1E008950C94A709672F38
:1011D000782F8827B85F39F0B93FCCF3869577959B
:1011E0006795B395D9F73EF4909580957095619584
:1011F0007F4F8F4F9F4F0895E89409C097FB3EF4AF
:1012000090958095709561957F4F8F4F9F4F992353
:10121000A9F0F92F96E9BB279395F69587957795D1
:101220006795B795F111F8CFFAF4BB0F11F460FF91
:101230001BC06F5F7F4F8F4F9F4F16C0882311F0E9
:1012400096E911C0772321F09EE8872F762F05C0FD
:10125000662371F096E8862F70E060E02AF09A9598
:10126000660F771F881FDAF7880F9695879597F98D
:101270000895990F0008550FAA0BE0E8FEEF161627
:101280001706E807F907C0F012161306E407F5077A
:1012900098F0621B730B840B950B39F40A2661F0EE
:1012A000232B242B252B21F408950A2609F4A14091
:1012B000A6958FEF811D811D089597F99F6780E89E
:1012C00070E060E008959FEF80EC089500240A9498
:1012D0001616170618060906089500240A94121611
:1012E0001306140605060895092E0394000C11F444
:1012F000882352F0BB0F40F4BF2B11F460FF04C0F1
:101300006F5F7F4F8F4F9F4F089557FD9058440F49
:10131000551F59F05F3F71F04795880F97FB991F54
:1013200061F09F3F79F08795089512161306140611
:10133000551FF2CF4695F1DF08C01616170618069E
:10134000991FF1CF86957105610508940895E89479
:10135000BB2766277727CB0197F908950E943909A3
:1013600008F48FEF08950E94C6090C9474090E9436
:10137000660938F00E946D0920F0952311F00C9455
:101380005D090C94630911240C94A8090E94850935
:1013900070F3959FC1F3950F50E0551F629FF001C8
:1013A000729FBB27F00DB11D639FAA27F00DB11DE1
:1013B000AA1F649F6627B00DA11D661F829F22276A
:1013C000B00DA11D621F739FB00DA11D621F839FF1
:1013D000A00D611D221F749F3327A00D611D231FC7
:1013E000849F600D211D822F762F6A2F11249F5715
:1013F00050409AF0F1F088234AF0EE0FFF1FBB1F18
:10140000661F771F881F91505040A9F79E3F5105D6
:1014100080F00C945D090C94A8095F3FE4F3983EBA
:10142000D4F3869577956795B795F795E7959F5F80
:10143000C1F7FE2B880F911D9695879597F9089512
:101440000E943909880B990B0895A1E21A2EAA1B54
:10145000BB1BFD010DC0AA1FBB1FEE1FFF1FA21764
:10146000B307E407F50720F0A21BB30BE40BF50B61
:10147000661F771F881F991F1A9469F760957095EA
:10148000809590959B01AC01BD01CF010895EE0FB1
:10149000FF1F0590F491E02D0994F894FFCF01000F
:1014A000004000140054000000000057022A026DA2
:1014B000030002230210020102000000002404B114
:1014C000006D039901564F4C544D455445520056FA
:1014D0006F6C746D6574657200436865636B205052
:1014E0006F6C61726974792021006E616E00696EA3
:0C14F00066006F766600766F6C74730007
:107E0000112484B714BE81FFF0D085E080938100F7
:107E100082E08093C00088E18093C10086E0809377
:107E2000C20080E18093C4008EE0C9D0259A86E02C
:107E300020E33CEF91E0309385002093840096BBD3
:107E4000B09BFECF1D9AA8958150A9F7CC24DD24C4
:107E500088248394B5E0AB2EA1E19A2EF3E0BF2EE7
:107E6000A2D0813461F49FD0082FAFD0023811F036
:107E7000013811F484E001C083E08DD089C08234E0
:107E800011F484E103C0853419F485E0A6D080C0E4
:107E9000853579F488D0E82EFF2485D0082F10E0AE
:107EA000102F00270E291F29000F111F8ED06801E7
:107EB0006FC0863521F484E090D080E0DECF843638
:107EC00009F040C070D06FD0082F6DD080E0C81688
:107ED00080E7D80618F4F601B7BEE895C0E0D1E017
:107EE00062D089930C17E1F7F0E0CF16F0E7DF06D8
:107EF00018F0F601B7BEE89568D007B600FCFDCFD4
:107F0000A601A0E0B1E02C9130E011968C91119780
:107F100090E0982F8827822B932B1296FA010C0160
:107F200087BEE89511244E5F5F4FF1E0A038BF0790
:107F300051F7F601A7BEE89507B600FCFDCF97BE46
:107F4000E89526C08437B1F42ED02DD0F82E2BD052
:107F50003CD0F601EF2C8F010F5F1F4F84911BD097
:107F6000EA94F801C1F70894C11CD11CFA94CF0C13
:107F7000D11C0EC0853739F428D08EE10CD085E9AC
:107F80000AD08FE07ACF813511F488E018D01DD067
:107F900080E101D065CF982F8091C00085FFFCCF94
:107FA0009093C60008958091C00087FFFCCF809118
:107FB000C00084FD01C0A8958091C6000895E0E648
:107FC000F0E098E1908380830895EDDF803219F02E
:107FD00088E0F5DFFFCF84E1DECF1F93182FE3DFCA
:107FE0001150E9F7F2DF1F91089580E0E8DFEE27F6
:047FF000FF270994CA
:027FFE00040479
:00000001FF
